:100000000C944D010C947E010C947E010C947E01A5
:100010000C947E010C947E010C947E010C947E0164
:100020000C947E010C94F4070C9477070C941A0737
:100030000C947E010C947E010C947E010C947E0144
:100040000C947E010C947E010C947E010C947E0134
:100050000C947E010C947E010C947E010C9470062D
:100060000C947E010C94E4060C94BA060C947E0168
:100070000C947E010C947E010C947E010C947E0104
:100080000C947E010C947E010C947E010C947E01F4
:100090000C947E010C947E010C947E010C947E01E4
:1000A0000C947E010C947E010C947E010C947E01D4
:1000B0000C947E010C947E010C947E010C947E01C4
:1000C0000C947E010C947E010C947E010C947E01B4
:1000D0000C947E010C947E010C947E010C947E01A4
:1000E0000C947E01AF01B201A101A501A901E901B2
:1000F000B601BA01C001C401C801CE01D201D601C6
:10010000E901DC01E001E4010C94BA010C94A501C1
:100110000C94AF010C94B6010C9434050C942E058C
:100120000C944C080C94E4010C94A0020C94B201C1
:100130000C94A1010C94A9010C94CE010C943303EE
:100140000C94D6010C94C8010C94D9020C94C001F3
:100150000C94FB020C94E9010C94ED020C94DC016C
:100160000C94D2010C94CA020C94E0010C94350555
:100170000C94C4010C94800300002000230026008E
:1001800029002C002F0032000001000003010601AD
:10019000090100002100240027002A002D00300062
:1001A000330001010000040107010A0100002200E0
:1001B000250028002B002E00310034000201000031
:1001C000050108010B0105050505070508080808D4
:1001D000020202020A0A08080404040401010101DF
:1001E00001010101030303030303030304070707DA
:1001F0000C0C0C0C0C0C0C0C02020202060606067F
:10020000060606060B0B0B0B0B0B0B0B010210204B
:10021000200808102040102040800201020108043C
:1002200002010102040810204080804020100804D0
:100230000201800402018040201008040201080429
:10024000020101020408102040800102040810206D
:10025000408000000A0B02090C0D0E080703040180
:10026000000000000000000000000000000000008E
:10027000000000000000000000000000000012115B
:10028000100000000000000000000000000000005E
:1002900000000000000000004C0811241FBECFEF3A
:1002A000D1E2DEBFCDBF00E00CBF12E0A0E0B2E0C3
:1002B000E8ECFBE100E00BBF02C007900D92A23C0E
:1002C000B107D9F723E0A2ECB2E001C01D92A13939
:1002D000B207E1F711E0CDE4D1E000E006C02197DC
:1002E0000109802FFE010E94990BCC34D10780E0D8
:1002F0000807A9F70E9496080C94E20D0C940000E0
:10030000362F90E0FC01EE5AFD4F4491FC01E45F72
:10031000FD4F2491FC01EA53FE4F9491992309F477
:100320006CC0442309F455C050E0FA013197E23122
:10033000F10508F04EC08827EE58FF4F8F4F0C9400
:10034000990B809180008F7707C0809180008F7D0E
:1003500003C080918000877F809380003AC084B57D
:100360008F7702C084B58F7D84BD33C08091B0008B
:100370008F7703C08091B0008F7D8093B00029C03B
:10038000809190008F7707C0809190008F7D03C08F
:1003900080919000877F809390001BC08091A00087
:1003A0008F7707C08091A0008F7D03C08091A0004F
:1003B000877F8093A0000DC0809120018F7707C0B8
:1003C000809120018F7D03C080912001877F8093E1
:1003D0002001E92FF0E0EE0FFF1FE455FE4FA5913D
:1003E000B4919FB7F894311104C08C9120952823C3
:1003F00002C0EC912E2B2C939FBF0895CF93DF93D7
:1004000090E0FC01E45FFD4F2491FC01EA53FE4FB4
:100410008491882361F190E0880F991FFC01EE56CA
:10042000FE4FC591D491FC01E455FE4FA591B491C6
:10043000611109C09FB7F894888120958223888331
:10044000EC912E230BC0623061F49FB7F894888141
:10045000322F309583238883EC912E2B2C939FBFD2
:1004600006C08FB7F894E8812E2B28838FBFDF91C9
:10047000CF9108953FB7F8948091D8029091D90216
:10048000A091DA02B091DB0226B5A89B05C02F3FF0
:1004900019F00196A11DB11D3FBFBA2FA92F982FAA
:1004A0008827820F911DA11DB11DBC01CD0142E025
:1004B000660F771F881F991F4A95D1F708958F926D
:1004C0009F92AF92BF92CF92DF92EF92FF926B0119
:1004D0007C010E943A024B015C01C114D104E10489
:1004E000F104F1F00E943A02DC01CB01881999096C
:1004F000AA09BB09883E9340A105B10570F321E02C
:10050000C21AD108E108F10888EE880E83E0981E2F
:10051000A11CB11CC114D104E104F10419F7DDCF11
:10052000FF90EF90DF90CF90BF90AF909F908F9013
:100530000895DC01ED91FC910190F081E02D19947A
:10054000CF92DF92EF92FF920F931F93CF93DF939F
:100550006C017A018B01C0E0D0E0CE15DF0581F09F
:10056000D8016D918D01D601ED91FC910190F08142
:10057000E02DC6011995892B11F02196EECF7E0151
:10058000C701DF91CF911F910F91FF90EF90DF9006
:10059000CF900895FC01538D448D252F30E0842F9A
:1005A00090E0821B930B541710F0CF96089501979B
:1005B0000895FC01918D828D981761F0828DDF0185
:1005C000A80FB11D5D968C91928D9F5F9F73928F46
:1005D00090E008958FEF9FEF0895FC01918D828D3B
:1005E000981731F0828DE80FF11D858D90E0089508
:1005F0008FEF9FEF0895FC01918D228D892F90E060
:10060000805C9F4F821B91098F73992708958CED11
:1006100092E00E94FB0221E0892B09F420E0822F66
:100620000895FC01848DDF01A80FB11DA35ABF4FAF
:100630002C91848D90E001968F739927848FA689E1
:10064000B7892C93A089B1898C91837080648C9335
:10065000938D848D981306C00288F389E02D8081E4
:100660008F7D80830895EF92FF920F931F93CF9316
:10067000DF93EC0181E0888F9B8D8C8D981305C0F2
:10068000E889F989808185FD26C0F62E0B8D10E062
:100690000F5F1F4F0F731127E02E8C8DE8120CC0D7
:1006A0000FB607FCFACFE889F989808185FFF5CF7D
:1006B000CE010E941103F1CF8B8DFE01E80FF11DD9
:1006C000E35AFF4FF0829FB7F8940B8FEA89FB89BA
:1006D000808180620AC09FB7F894EE89FF896083A9
:1006E000E889F98980818370806480839FBF81E07D
:1006F00090E0DF91CF911F910F91FF90EF900895BF
:10070000CF93DF93EC01888D8823C9F0EA89FB89B8
:10071000808185FD05C0A889B9898C9186FD0FC0AF
:100720000FB607FCF5CF808185FFF2CFA889B98984
:100730008C9185FFEDCFCE010E941103E7CFDF91B1
:10074000CF91089580E090E0892B21F00E9407036B
:10075000811125C080E090E0892B41F080E090E09D
:10076000892B21F00E94000081111CC080E090E0E4
:10077000892B41F080E090E0892B21F00E9400005D
:10078000811113C080E090E0892BA1F080E090E01F
:10079000892B81F00E94000081110AC008950E94F7
:1007A0000000D8CF0E940000E1CF0E940000EACFF5
:1007B0000C9400000895CF93DF93EC0160E08E81EC
:1007C0000E94800161E08E810E94800160E08E8144
:1007D0000E9480018BE891E00197F1F7DF91CF91C2
:1007E0000895CF92DF92EF92FF920F931F93CF93D2
:1007F000DF936C017C0187E0E80EF11CC0E0D0E0E3
:10080000062F10E0B8010C2E02C0759567950A946A
:10081000E2F76170F70181917F010E9480012196CA
:10082000C430D10579F7C601DF91CF911F910F91A7
:10083000FF90EF90DF90CF900C94DB03CF92DF928C
:10084000EF92FF920F931F93CF93DF93EC01F62E5D
:10085000642F8C810E9480018D818F3F19F060E0B0
:100860000E9480018F850F2D10E084FF25C06E014E
:1008700087E0C80ED11CE12CF12CB8010E2C02C06F
:10088000759567950A94E2F76170F60181916F01A1
:100890000E948001FFEFEF1AFF0A88E0E816F104DA
:1008A00061F7CE01DF91CF911F910F91FF90EF90F3
:1008B000DF90CF900C94DB03B80184E075956795C9
:1008C0008A95E1F7CE010E94F1036F2DCE01DF91F1
:1008D000CF911F910F91FF90EF90DF90CF900C94EC
:1008E000F10340E0682F89E793E00C941E04843004
:1008F00008F083E090918C03891710F08FEF890F37
:10090000E82FF0E0E758FC4F848980680C9471046C
:10091000CF93DF93823028F0909188039860909372
:10092000880380938C0310928D0380E480938E0360
:1009300080E180938F0380E58093900361E0809154
:100940007D030E94FE0180917E038F3F19F061E0DC
:100950000E94FE0161E080917F030E94FE01C9E7D1
:10096000D3E09E01295733408091880384FD03C062
:1009700084E090E002C088E090E0219628173907D3
:100980002CF461E08E810E94FE01EBCF8BE39DE0B1
:100990000197F1F760E080917D030E94800160E0A3
:1009A00080917F030E94800180917E038F3F19F028
:1009B00060E00E9480018091880384FD20C063E094
:1009C00089E793E00E94F103CBE4D6E4CE010197DE
:1009D000F1F763E089E793E00E94F1032197F1F7D3
:1009E00063E089E793E00E94F10383E592E00197D9
:1009F000F1F762E089E793E00E94F10315C080629D
:100A00000E9471048BE496E40197F1F780918803CA
:100A100080620E94710483E592E00197F1F7809172
:100A2000880380620E9471048091880380620E9422
:100A3000710484E0809389038CE00E94710481E05A
:100A40000E9471048BE39FE10197F1F782E08093AC
:100A50008A0386E0DF91CF910C94710441E00E94FB
:100A60001E0481E090E00895089580E090E00895EC
:100A70000E94DD0D6115710579F0FB0101900020E8
:100A8000E9F73197AF01461B570BDC01ED91FC9163
:100A90000280F381E02D199480E090E008952F9278
:100AA0003F924F925F926F927F928F929F92AF92FE
:100AB000BF92CF92DF92EF92FF920F931F93CF934B
:100AC000DF93CDB7DEB7A2970FB6F894DEBF0FBEA7
:100AD000CDBF6C014A015B01F22E9A01AB01C50149
:100AE000B4010E94D80D882319F062E272E027C099
:100AF00024013501E89477F82FEF3FEF4FE75FE7E8
:100B0000C301B2010E94D80D81110DC02FEF3FEF3C
:100B10004FE75FE7C301B2010E940E0C18161CF4E8
:100B200066E272E00CC02FEF3FEF4FE75FE4C501D4
:100B3000B4010E94660D181634F46AE272E0C60130
:100B40000E943A05B2C02FEF3FEF4FE75FECC501BF
:100B5000B4010E940E0C87FDF0CF20E030E0A90127
:100B6000C501B4010E940E0C87FF0AC06DE2C601E8
:100B70000E9499021C01B7FAB094B7F8B09402C071
:100B8000212C312C10E060E070E080E09FE3F11652
:100B900041F020E030E040E251E40E94130C1F5F7E
:100BA000F6CFA50194010E94A20B4B015C010E94AB
:100BB000850C562E672E782EE92E19A2262F372F58
:100BC000482F592F8E010F5D1F4F0AA3412ECA01D6
:100BD000B9012AE030E040E050E00E94770B605D10
:100BE000F80162938F01211531054105510579F70F
:100BF000BF01C6010E943A058101080F191FFF209D
:100C000009F452C0652D762D872D9E2D0E94B40CBF
:100C10009B01AC01C501B4010E94A10B4B015C0119
:100C20006EE2C6010E949902080F191F20E030E011
:100C300040E251E4C501B4010E946B0D4B015C011F
:100C40000E94850C9B0140E050E019A22AA0342CA0
:100C5000562E632E742EE52ECA01B9012AE030E02B
:100C600040E050E00E94770B605DF10162931F014C
:100C7000211531054105510579F7BF01C6010E94D3
:100C80003A05080F191F652D762D872D9E2D0E9480
:100C9000B40C9B01AC01C501B4010E94A10B4B0136
:100CA0005C01FA94F110C2CFC801A2960FB6F89475
:100CB000DEBF0FBECDBFDF91CF911F910F91FF908F
:100CC000EF90DF90CF90BF90AF909F908F907F90EC
:100CD0006F905F904F903F902F9008950C943A053D
:100CE0001F920F920FB60F9211242F933F938F9361
:100CF0009F93AF93BF938091D4029091D502A0911E
:100D0000D602B091D7023091D30223E0230F2D37C2
:100D100020F40196A11DB11D05C026E8230F0296FF
:100D2000A11DB11D2093D3028093D4029093D502CC
:100D3000A093D602B093D7028091D8029091D902A5
:100D4000A091DA02B091DB020196A11DB11D809342
:100D5000D8029093D902A093DA02B093DB02BF913C
:100D6000AF919F918F913F912F910F900FBE0F9058
:100D70001F9018951F920F920FB60F9211240BB669
:100D80000F922F933F934F935F936F937F938F9324
:100D90009F93AF93BF93EF93FF938CED92E00E94EC
:100DA0001103FF91EF91BF91AF919F918F917F912F
:100DB0006F915F914F913F912F910F900BBE0F90CC
:100DC0000FBE0F901F9018951F920F920FB60F92A3
:100DD00011240BB60F922F938F939F93EF93FF9352
:100DE000E091EC02F091ED028081E091F202F0914D
:100DF000F30282FD12C090818091F5028F5F8F73A4
:100E00002091F602821751F0E091F502F0E0E452F1
:100E1000FD4F958F8093F50201C08081FF91EF9186
:100E20009F918F912F910F900BBE0F900FBE0F903F
:100E30001F9018951F920F920FB60F9211240BB6A8
:100E40000F922F933F934F935F936F937F938F9363
:100E50009F93AF93BF93EF93FF938091C2029091C2
:100E6000C302892B19F481E090E02AC08091C2026C
:100E70009091C302029741F567EA72E08CED92E02F
:100E80000E946E068091C4029091C5020197E1F420
:100E900020E030E040E85FE36091000270910102E1
:100EA00080910202909103020E94A20B60930002C3
:100EB00070930102809302029093030283E090E01A
:100EC0009093C3028093C202FF91EF91BF91AF91C3
:100ED0009F918F917F916F915F914F913F912F9152
:100EE0000F900BBE0F900FBE0F901F9018951F9282
:100EF0000F920FB60F9211240BB60F92CF92DF9282
:100F0000EF92FF922F933F934F935F936F937F9353
:100F10008F939F93AF93BF93EF93FF938091C20200
:100F20009091C302892B19F481E090E042C0809136
:100F3000C2029091C302029709F03FC060EB72E0D9
:100F40008CED92E00E946E068091C4029091C502E1
:100F5000019769F520E030E040E85FE3609100022E
:100F60007091010280910202909103020E94A20BF3
:100F70006B017C0120E030E048EC52E40E94660DF9
:100F800087FF09C0C0920002D0920102E0920202E3
:100F9000F09203020CC080E090E0A0EAB1E48093FC
:100FA000000290930102A0930202B093030283E037
:100FB00090E09093C3028093C202FF91EF91BF91A2
:100FC000AF919F918F917F916F915F914F913F91E1
:100FD0002F91FF90EF90DF90CF900F900BBE0F906E
:100FE0000FBE0F901F9018951F920F920FB60F9281
:100FF00011240BB60F922F933F934F935F936F93F0
:101000007F938F939F93AF93BF93EF93FF938091C1
:10101000C2029091C302892B19F481E090E025C0AF
:101020008091C2029091C302029719F58091C40287
:101030009091C502892B39F481E090E09093C5022C
:101040008093C4020AC08091C4029091C5020197A6
:1010500021F41092C5021092C40269EB72E08CED8B
:1010600092E00E946E0683E090E09093C30280932A
:10107000C202FF91EF91BF91AF919F918F917F91AC
:101080006F915F914F913F912F910F900BBE0F90F9
:101090000FBE0F901F901895ECEDF2E013821282B4
:1010A00088EE93E0A0E0B0E084839583A683B783C5
:1010B00088E092E09183808385EC90E09587848737
:1010C00084EC90E09787868780EC90E0918B808B12
:1010D00081EC90E0938B828B82EC90E0958B848BFB
:1010E00086EC90E0978B868B118E128E138E148E69
:1010F000E9E7F3E0138212828AE192E09183808330
:101100008AE084838FEF85838CE0868386E1878302
:1011100087E1808788E1818789E182871386148649
:1011200015861686178681E00C948804789484B519
:10113000826084BD84B5816084BD85B5826085BDD3
:1011400085B5816085BD80916E00816080936E0061
:101150001092810080918100826080938100809153
:101160008100816080938100809180008160809304
:1011700080008091B10084608093B1008091B000C4
:1011800081608093B0008091910082608093910093
:1011900080919100816080939100809190008160A6
:1011A000809390008091A10082608093A100809143
:1011B000A10081608093A1008091A0008160809354
:1011C000A000809121018260809321018091210102
:1011D00081608093210180912001816080932001B2
:1011E00080917A00846080937A0080917A00826096
:1011F00080937A0080917A00816080937A00809158
:101200007A00806880937A001092C1002198299A10
:101210008091680081608093680080916B0082609B
:1012200080936B00809104018E7F809304018091F4
:101230000501816080930501809168008260809340
:10124000680080916C00826080936C00809107013F
:101250008F7780930701809108018068809308014F
:101260008091680084608093680080916D00806840
:1012700080936D00E091EC02F091ED0282E08083BA
:10128000E091E802F091E9021082E091EA02F09127
:10129000EB028FEC80831092F402E091F002F09167
:1012A000F10286E08083E091EE02F091EF0280810E
:1012B00080618083E091EE02F091EF02808188608E
:1012C0008083E091EE02F091EF028081806880835C
:1012D000E091EE02F091EF0280818F7D808361E0EA
:1012E00088E30E94FE0161E087E30E94FE0182E044
:1012F0000E9488042BE9222E312C412C30EC532EF5
:1013000039E7632E34EC732E42E0C42ED12C78944E
:10131000E2E4F2E0D491ECEFF1E08491E82FF0E028
:10132000EE0FFF1FE858FE4F059114911092CE0268
:101330001092CF021092D0021092D1021092D202DB
:1013400061E086E30E94FE0160E086E30E94800186
:1013500062E170E080E090E00E945F0261E086E37D
:101360000E948001C1010197F1F760E086E30E94CD
:10137000FE0180E991E0F80120812D2319F4019705
:10138000D1F7A4C180E991E0F80120812D2319F063
:101390000197D1F79BC188E2F82EC0E8E12C80E9E3
:1013A00091E0F80120812D2319F40197D1F78EC126
:1013B0000E943A024B015C0180E991E0F801208132
:1013C0002D2319F00197D1F781C10E943A02DC0167
:1013D000CB0188199909AA09BB098997A105B1050B
:1013E00038F0EE2DF0E0EA53FD4F80858C2B80879E
:1013F000C69511F4E394C0E8FA94F110D0CF61E0FF
:1014000086E30E94FE0161E086E30E948001609114
:10141000CE0270E080E090E00E94B40C6093C602BF
:101420007093C7028093C8029093C9026091D00262
:1014300070E080E090E00E94B40C6093CA02709368
:10144000CB028093CC029093CD026EE272E08CEDE1
:1014500092E00E946E0622E040E050E068ED71E408
:101460008CED92E00E944F0565E472E08CED92E015
:101470000E946E064091CA025091CB026091CC024C
:101480007091CD0222E08CED92E00E944F0564E560
:1014900072E08CED92E00E943A0567E572E08CED17
:1014A00092E00E946E06409100025091010260910C
:1014B00002027091030222E08CED92E00E944F053F
:1014C0006BE672E08CED92E00E946E064091C602DF
:1014D0005091C7026091C8027091C90222E08CED60
:1014E00092E00E944F0564E572E08CED92E00E946C
:1014F0003A056CED75E080E090E00E945F0280911B
:10150000C4029091C502892B99F580E00E9477046E
:1015100067E772E089E793E00E946E064091CA0295
:101520005091CB026091CC027091CD0222E089E70C
:1015300093E00E944F056FED89E793E00E949902C6
:101540006EE772E089E793E00E946E0681E00E94F8
:10155000770460E872E089E793E00E946E064091AC
:10156000C6025091C7026091C8027091C90235C08D
:101570008091C4029091C502019709F03FC080E0BC
:101580000E9477046DE872E089E793E00E946E069E
:1015900022E040E050E068ED71E489E793E00E94CA
:1015A0004F056FED89E793E00E9499026EE772E0C4
:1015B00089E793E00E946E0681E00E94770460E86C
:1015C00072E089E793E00E946E064091000250911C
:1015D0000102609102027091030222E089E793E028
:1015E0000E944F056BE872E089E793E00E946E0667
:1015F0006CED75E080E090E00E945F028091C20295
:101600009091C3028130910569F00397A9F461E0DC
:1016100070E080E090E00E945F021092C30210929E
:10162000C2020AC061E070E080E090E00E945F02C8
:10163000D092C302C092C2022091000230910102F6
:1016400040910202509103026091C6027091C7025C
:101650008091C8029091C9020E940E0C87FF14C0AD
:1016600065E972E08CED92E00E946E0661E088E32D
:101670000E94800168EB7BE080E090E00E945F02C6
:1016800060E088E30E94800120E030E048ED51E412
:101690006091CA027091CB028091CC029091CD02F0
:1016A0000E940E0C87FF0FC06FE972E08CED92E094
:1016B0000E946E06819A899860E177E280E090E06E
:1016C0000E945F02899A0E94A20321CE4092C60224
:1016D0005092C7026092C8027092C9024092CA0238
:1016E0005092CB026092CC027092CD02AECEA1E2BB
:1016F0001A2EAA1BBB1BFD010DC0AA1FBB1FEE1F8C
:10170000FF1FA217B307E407F50720F0A21BB30BD6
:10171000E40BF50B661F771F881F991F1A9469F752
:1017200060957095809590959B01AC01BD01CF01AE
:101730000895EE0FFF1F881F8BBF0790F691E02DD5
:1017400019945058BB27AA270E94B90B0C942C0D52
:101750000E941E0D38F00E94250D20F039F49F3FA5
:1017600019F426F40C941B0D0EF4E095E7FB0C9491
:10177000150DE92F0E943D0D58F3BA176207730744
:101780008407950720F079F4A6F50C945F0D0EF40C
:10179000E0950B2EBA2FA02D0B01B90190010C0181
:1017A000CA01A0011124FF27591B99F0593F50F499
:1017B000503E68F11A16F040A22F232F342F4427F1
:1017C000585FF3CF469537952795A795F0405395E9
:1017D000C9F77EF41F16BA0B620B730B840BBAF0B9
:1017E0009150A1F0FF0FBB1F661F771F881FC2F724
:1017F0000EC0BA0F621F731F841F48F48795779538
:101800006795B795F7959E3F08F0B0CF9395880FF1
:1018100008F09927EE0F9795879508950E94F10C8F
:1018200008F481E008950E94270C0C942C0D0E946E
:10183000250D58F00E941E0D40F029F45F3F29F05D
:101840000C94150D51110C94600D0C941B0D0E94FD
:101850003D0D68F39923B1F3552391F3951B550B77
:10186000BB27AA2762177307840738F09F5F5F4F73
:10187000220F331F441FAA1FA9F335D00E2E3AF0B2
:10188000E0E832D091505040E695001CCAF72BD0CA
:10189000FE2F29D0660F771F881FBB1F261737071B
:1018A0004807AB07B0E809F0BB0B802DBF01FF274D
:1018B00093585F4F3AF09E3F510578F00C94150D08
:1018C0000C94600D5F3FE4F3983ED4F386957795D2
:1018D0006795B795F7959F5FC9F7880F911D969506
:1018E000879597F90895E1E0660F771F881FBB1F62
:1018F000621773078407BA0720F0621B730B840B0F
:10190000BA0BEE1F88F7E09508950E94450D88F008
:101910009F5798F0B92F9927B751B0F0E1F0660FB3
:10192000771F881F991F1AF0BA95C9F714C0B130F4
:1019300091F00E945F0DB1E008950C945F0D672F48
:10194000782F8827B85F39F0B93FCCF38695779523
:101950006795B395D9F73EF490958095709561950C
:101960007F4F8F4F9F4F0895E89409C097FB3EF437
:1019700090958095709561957F4F8F4F9F4F9923DC
:10198000A9F0F92F96E9BB279395F695879577955A
:101990006795B795F111F8CFFAF4BB0F11F460FF1A
:1019A0001BC06F5F7F4F8F4F9F4F16C0882311F072
:1019B00096E911C0772321F09EE8872F762F05C086
:1019C000662371F096E8862F70E060E02AF09A9521
:1019D000660F771F881FDAF7880F9695879597F916
:1019E0000895990F0008550FAA0BE0E8FEEF1616B0
:1019F0001706E807F907C0F012161306E407F50703
:101A000098F0621B730B840B950B39F40A2661F076
:101A1000232B242B252B21F408950A2609F4A14019
:101A2000A6958FEF811D811D089597F99F6780E826
:101A300070E060E008959FEF80EC089500240A9420
:101A40001616170618060906089500240A94121699
:101A50001306140605060895092E0394000C11F4CC
:101A6000882352F0BB0F40F4BF2B11F460FF04C079
:101A70006F5F7F4F8F4F9F4F089557FD9058440FD2
:101A8000551F59F05F3F71F04795880F97FB991FDD
:101A900061F09F3F79F0879508951216130614069A
:101AA000551FF2CF4695F1DF08C016161706180627
:101AB000991FF1CF86957105610508940895E89402
:101AC000BB2766277727CB0197F908950E94F10C71
:101AD00008F48FEF08950E947E0D0C942C0D0E9447
:101AE0001E0D38F00E94250D20F0952311F00C9466
:101AF000150D0C941B0D11240C94600D0E943D0DCE
:101B000070F3959FC1F3950F50E0551F629FF00150
:101B1000729FBB27F00DB11D639FAA27F00DB11D69
:101B2000AA1F649F6627B00DA11D661F829F2227F2
:101B3000B00DA11D621F739FB00DA11D621F839F79
:101B4000A00D611D221F749F3327A00D611D231F4F
:101B5000849F600D211D822F762F6A2F11249F579D
:101B600050409AF0F1F088234AF0EE0FFF1FBB1FA0
:101B7000661F771F881F91505040A9F79E3F51055F
:101B800080F00C94150D0C94600D5F3FE4F3983ECB
:101B9000D4F3869577956795B795F795E7959F5F09
:101BA000C1F7FE2B880F911D9695879597F908959B
:101BB0000E94F10C880B990B089581E090E0F89455
:081BC0000C94E20DF894FFCF34
:101BC80000009642000000003303A002CA0280030E
:101BD800FB02D902ED02000000002E05A002350527
:101BE80034056E616E00696E66006F766600546536
:101BF8006D70657261747572652073657474696E51
:101C080067203D200054656D70657261747572655A
:101C1800203D20000D0A0048756D696469747920BB
:101C280073657474696E67203D200048756D69643A
:101C3800697479203D200054656D703A2000430096
:101C480048756D69646974793A2000250054656D9A
:101C580070583A200061746F6D697A696E67006820
:101C6800656174696E670053776974636820320030
:101C78005377697463682031005377697463682007
:021C880030002A
:00000001FF
